:100000000C942A000C9447000C9447000C94470071
:100010000C9447000C9447000C9447000C94470044
:100020000C9447000C9447000C9447000C94470034
:100030000C9447000C940F010C9447000C9447005B
:100040000C9447000C9447000C9447000C94470014
:100050000C94470011241FBECFE5D8E0DEBFCDBF12
:1000600010E0A0E6B0E0ECE4F8E002C005900D92EC
:10007000A836B107D9F710E0A8E6B0E001C01D929C
:10008000AB36B107E1F70E94F1000C9424040C9404
:1000900000003E9A86B1876886B90895877094B348
:1000A00041E050E09A01082E02C0220F331F0A944B
:1000B000E2F72095292324BB97B1892B87B9369A7B
:1000C000349BFECF349A84B195B1089520B5922B1C
:1000D00090BD99B1892B89B98AB188698AB980B5EF
:1000E000866880BD599A789408955D9BFECF8CB93F
:1000F00008958BB1992787FD9095892F881F8827B0
:10010000881F90E008955F9BFECF8CB10895CF9239
:10011000DF92EF92FF921F93CF93DF93CDB7DEB7BD
:1001200064970FB6F894DEBF0FBECDBF2DB73EB7B4
:10013000285030400FB6F8943EBF0FBE2DBFEDB72C
:10014000FEB731966E010894C11CD11CADB7BEB785
:100150001296DC92CE92119720E630E03383228310
:1001600020916800309169003583248397838683CA
:100170000E944D010F2EF5E1EF2EFF24F02DEC0E25
:10018000FD1EEDB7FEB738960FB6F894FEBF0FBE52
:10019000EDBFD6011D916D01812F0E9475001932AE
:1001A00049F0EFE4F3EC3197F1F700C00000CE1412
:1001B000DF0479F78091680090916900019690932F
:1001C00069008093680064960FB6F894DEBF0FBE96
:1001D000CDBFDF91CF911F91FF90EF90DF90CF9037
:1001E00008958FEF87BB83E081BB8CE090E00E9495
:1001F00066000E944900789480916A008F3F59F40C
:1002000080E00E944E000E9487008FE493EC0197EB
:10021000F1F700C0000080916A0088BBEDCF1F920B
:100220000F920FB60F9211242F933F934F935F932A
:100230006F937F938F939F93AF93BF93EF93FF93AE
:100240000E9483008F3441F40E9483008B34A1F418
:100250008FEF80936A0010C0853471F40E94830090
:100260008E3451F40E948300843431F4109269007A
:100270001092680010926A00FF91EF91BF91AF91C8
:100280009F918F917F916F915F914F913F912F91AE
:100290000F900FBE0F901F901895AEE0B0E0E3E511
:1002A000F1E00C94FB030D891E8986E08C831A8390
:1002B00009838FEF9FE79E838D83AE01475E5F4F7B
:1002C000CE0101966F89788D0E946F01EF81F885CC
:1002D000E00FF11F10822E96E4E00C941704ADE0BD
:1002E000B0E0E5E7F1E00C94ED033C017D876C871D
:1002F0005A01FC0117821682838181FFC8C12E0139
:100300000894411C511CF3019381EC85FD8593FDFC
:10031000859193FF8191FD87EC87882309F4B3C110
:10032000853241F493FD859193FF8191FD87EC87A0
:10033000853229F490E0B3010E946303E4CFFF24E7
:10034000EE2410E01032B0F48B3269F08C3228F4D5
:10035000803251F0833271F40BC08D3239F080332A
:1003600049F411602CC01260146029C0186027C0C5
:10037000106125C017FD2EC0282F20532A3098F475
:1003800016FF08C08F2D880FF82EFF0CFF0CF80EFB
:10039000F20E15C08E2D880FE82EEE0CEE0CE80E36
:1003A000E20E10620CC08E3221F416FD6CC1106496
:1003B00006C08C3611F4106802C0883659F4EC85FA
:1003C000FD8593FD859193FF8191FD87EC878823BF
:1003D00009F0B8CF982F9554933018F0905293307D
:1003E00038F424E030E0A20EB31E3FE339830FC09F
:1003F000833631F0833781F0833509F05AC022C04B
:10040000F5018081898322E030E0A20EB31E21E055
:10041000C22ED12C420114C092E0292E312C2A0C7C
:100420003B1CF5018080918016FF03C06F2D70E0AA
:1004300002C06FEF7FEFC4010E9458036C015101AD
:100440001F7715C082E0282E312C2A0C3B1CF501A9
:100450008080918016FF03C06F2D70E002C06FEFA7
:100460007FEFC4010E944D036C011068510113FD20
:100470001CC006C080E290E0B3010E946303EA94CE
:100480008E2D90E0C816D906A8F30FC0F40117FD11
:10049000859117FF81914F0190E0B3010E946303A2
:1004A000E110EA940894C108D108C114D10471F78D
:1004B000E7C0843611F0893651F5F50117FF07C002
:1004C00080819181A281B38124E030E008C08081E5
:1004D0009181AA2797FDA095BA2F22E030E0A20EC5
:1004E000B31E012F0F76B7FF08C0B095A095909569
:1004F00081959F4FAF4FBF4F0068BC01CD01A20156
:100500002AE030E00E948F03D82ED4183FC08537F0
:1005100021F41F7E2AE030E020C0197F8F36A9F039
:10052000803720F4883509F0AEC00BC0803721F049
:10053000883709F0A8C001C0106114FF09C0146019
:1005400007C014FF08C0166006C028E030E005C0F0
:1005500020E130E002C020E132E0F50117FF07C0E2
:10056000608171818281938144E050E006C06081A6
:10057000718180E090E042E050E0A40EB51EA2013F
:100580000E948F03D82ED418012F0F7706FF09C0C1
:100590000E7FDF1430F404FF06C002FD04C00F7E9E
:1005A00002C01D2D01C01F2D802F90E004FF0CC044
:1005B000FE01ED0DF11D2081203311F4097E09C0EB
:1005C00002FF06C01E5F05C086789070009709F094
:1005D0001F5F802E992403FD12C000FF0DC0FD2C6B
:1005E0001E1550F4FE0CF11A1E2D06C080E290E09C
:1005F000B3010E9463031F5F1E15C0F304C01E15E4
:1006000010F4E11A01C0EE2484FE0FC080E390E0F4
:10061000B3010E94630382FE1FC081FE03C088E510
:1006200090E010C088E790E00DC0C401867890701B
:10063000009791F081FC02C080E201C08BE207FDCF
:100640008DE290E0B3010E94630306C080E390E076
:10065000B3010E946303FA94DF14C0F3DA94F20149
:10066000ED0DF11D808190E0B3010E946303DD2058
:10067000A9F706C080E290E0B3010E946303EA9408
:10068000EE20C1F740CEF3018681978102C08FEF43
:100690009FEF2D96E2E10C940904FC010590615056
:1006A00070400110D8F7809590958E0F9F1F089588
:1006B000FC016150704001900110D8F78095909531
:1006C0008E0F9F1F08950F931F93CF93DF938C017D
:1006D000EB018B8181FF1BC082FF0DC02E813F810A
:1006E0008C819D812817390764F4E881F981019391
:1006F000F983E88306C0E885F985802F099500977E
:1007000031F48E819F8101969F838E8302C00FEF0B
:100710001FEFC801DF91CF911F910F910895FA014A
:10072000AA27283051F1203181F1E8946F936E7F30
:100730006E5F7F4F8F4F9F4FAF4FB1E03ED0B4E021
:100740003CD0670F781F891F9A1FA11D680F791F62
:100750008A1F911DA11D6A0F711D811D911DA11D73
:1007600020D009F468943F912AE0269F1124301983
:10077000305D3193DEF6CF010895462F4770405D1E
:100780004193B3E00FD0C9F7F6CF462F4F70405DCD
:100790004A3318F0495D31FD4052419302D0A9F728
:1007A000EACFB4E0A6959795879577956795BA9522
:1007B000C9F700976105710508959B01AC010A2EE8
:1007C00006945795479537952795BA95C9F7620FBF
:1007D000731F841F951FA01D08952F923F924F9263
:1007E0005F926F927F928F929F92AF92BF92CF92C1
:1007F000DF92EF92FF920F931F93CF93DF93CDB7CA
:10080000DEB7CA1BDB0B0FB6F894DEBF0FBECDBF41
:1008100009942A88398848885F846E847D848C8412
:100820009B84AA84B984C884DF80EE80FD800C811B
:100830001B81AA81B981CE0FD11D0FB6F894DEBFFE
:0C0840000FBECDBFED010895F894FFCF6E
:08084C002825642C2564290015
:00000001FF
